:020000040000FA
:100000000C9462000C948A000C948A000C948A0070
:100010000C948A000C948A000C948A000C948A0038
:100020000C948A000C948A000C948A000C948A0028
:100030000C948A000C948A000C948A000C948A0018
:100040000C94A4050C948A000C9472050C944C0535
:100050000C948A000C948A000C948A000C948A00F8
:100060000C94EE050C948A00000000002400270088
:100070002A0000000000250028002B0000000008D6
:10008000000201000003040700000000000000005F
:1000900000000000230026002900040404040404D6
:1000A0000404020202020202030303030303010227
:1000B00004081020408001020408102001020408F6
:1000C0001020520711241FBECFEFD8E0DEBFCDBFF6
:1000D00011E0A0E0B1E0E6E7F6E102C005900D9284
:1000E000A834B107D9F722E0A8E4B1E001C01D921D
:1000F000A23CB207E1F710E0C2E6D0E004C02197CD
:10010000FE010E94330BC136D107C9F70E949A073E
:100110000C94390B0C94000008950895AF92BF928F
:10012000CF92DF92EF92FF920F931F93CF93DF93C3
:100130006C017B018B01040F151FEB015E01AE18F2
:10014000BF08C017D10759F06991D601ED91FC9114
:100150000190F081E02DC6010995892B79F7C50141
:10016000DF91CF911F910F91FF90EF90DF90CF9093
:10017000BF90AF900895FC01538D448D252F30E042
:10018000842F90E0821B930B541710F0CF960895A4
:1001900001970895FC01918D828D981761F0A28DD1
:1001A000AE0FBF2FB11D5D968C91928D9F5F9F7397
:1001B000928F90E008958FEF9FEF0895FC01918D4D
:1001C000828D981731F0828DE80FF11D858D90E0BA
:1001D00008958FEF9FEF0895FC01918D228D892F57
:1001E00090E0805C9F4F821B91098F73992708953F
:1001F0008DE092E00E94EC0021E0892B09F420E0E0
:10020000822F089580E090E0892B29F00E94F80069
:1002100081110C9400000895FC01A48DA80FB92F42
:10022000B11DA35ABF4F2C91848D90E001968F731E
:100230009927848FA689B7892C93A089B1898C913D
:10024000837080648C93938D848D981306C002888C
:10025000F389E02D80818F7D80830895EF92FF9256
:100260000F931F93CF93DF93EC0181E0888F9B8DD9
:100270008C8D98131AC0E889F989808185FF15C093
:100280009FB7F894EE89FF896083E889F9898081B6
:100290008370806480839FBF81E090E0DF91CF9185
:1002A0001F910F91FF90EF900895F62E0B8D10E0A7
:1002B0000F5F1F4F0F731127E02E8C8D8E110CC016
:1002C0000FB607FCFACFE889F989808185FFF5CF61
:1002D000CE010E940C01F1CFEB8DEC0FFD2FF11D33
:1002E000E35AFF4FF0829FB7F8940B8FEA89FB899E
:1002F00080818062CFCFCF93DF93EC01888D8823FC
:10030000B9F0AA89BB89E889F9898C9185FD03C078
:10031000808186FD0DC00FB607FCF7CF8C9185FF5D
:10032000F2CF808185FFEDCFCE010E940C01E9CF95
:10033000DF91CF91089590E0FC01E458FF4F2491A4
:10034000FC01E255FF4F3491FC01E656FF4FE4916A
:10035000EE23C9F0222339F0233001F1A8F4213033
:1003600019F1223029F1F0E0EE0FFF1FEE58FF4F98
:10037000A591B4918FB7F894EC91611126C0309596
:100380003E233C938FBF08952730A9F02830C9F051
:10039000243049F7809180008F7D03C080918000D8
:1003A0008F7780938000DFCF84B58F7784BDDBCFDC
:1003B00084B58F7DFBCF8091B0008F778093B000A4
:1003C000D2CF8091B0008F7DF9CF3E2BDACFCF9383
:1003D000DF9390E0FC01E255FF4F249186569F4F3A
:1003E000FC0184918823D1F090E0880F991FFC01D3
:1003F000E859FF4FA591B491FC01EE58FF4FC5910C
:10040000D49161110EC09FB7F8948C91E22FE095C2
:100410008E238C932881E223E8839FBFDF91CF91C5
:1004200008958FB7F894EC91E22BEC938FBFF6CF41
:100430003FB7F8948091FF0190910002A0910102D2
:10044000B091020226B5A89B05C02F3F19F0019676
:10045000A11DB11D3FBFBA2FA92F982F8827BC011E
:10046000CD01620F711D811D911D42E0660F771F46
:10047000881F991F4A95D1F708958F929F92AF9246
:10048000BF92CF92DF92EF92FF924B015C010E94EC
:1004900018026B017C010E9418026C197D098E09FB
:1004A0009F09683E734081059105A8F321E0821AF7
:1004B0009108A108B10888EEC80E83E0D81EE11C9F
:1004C000F11C81149104A104B10429F7FF90EF906D
:1004D000DF90CF90BF90AF909F908F900895089538
:1004E00020918901260F3327331F21323105ECF487
:1004F0002091D201FC0190E080E0243069F082E09C
:100500000895A09189012191AC0147595E4FA40F34
:10051000B52FB11D2C930196861798F38091890110
:10052000680F6093890180E0089581E0089510923A
:10053000D20181E08093D1011092AC0161E082E1AF
:100540000E949B0161E083E10E949B01E9EBF0E0E6
:1005500080818E7F808380818D7F808388E48093FB
:10056000B80085E48093BC000895CF93DF9391E0B9
:10057000909368018823B9F0C091B800D091BA0077
:100580008091BC008A7B8093BC0060E082E10E9485
:100590009B0160E083E10E949B010E949702D0933F
:1005A000BA00C093B800DF91CF9108950895E0910B
:1005B0000A0280910902E81730F4F0E0E85BFE4F90
:1005C000808190E008958FEF9FEF089590910A0247
:1005D000809109022FEF3FEF981748F4E92FF0E0E0
:1005E000E85BFE4F208130E09F5F90930A02C901D3
:1005F00008958091090290910A02891B990B089530
:10060000CF92DF92EF92FF920F931F93CF93DF93DE
:100610007C01CB018A012091D801222389F0EB01D2
:100620006B01C40ED51ECC15DD0569F06991D701AB
:10063000ED91FC910190F081E02DC7010995F3CF78
:10064000642F0E947002C801DF91CF911F910F911A
:10065000FF90EF90DF90CF900895CF93DF931F929C
:10066000CDB7DEB769832091D8012223F9F020911C
:100670000702203258F021E030E0FC01338322836E
:1006800090E080E00F90DF91CF9108958091080273
:10069000E82FF0E0E752FE4F998190838F5F8093BF
:1006A00008028093070281E090E0ECCF61E0CE0188
:1006B00001960E947002F7CFCF92DF92EF92FF92E5
:1006C0000F931F93CF93DF93FC01C48121E020930C
:1006D000D801C093F9011092080210920702838595
:1006E000682B8AEA92E00E942D03D0910702D13252
:1006F00008F092C00E9418026B017C018091D20127
:10070000811165C082E08093D20181E08093D101A4
:100710008FEF8093D0011092CF01D093CE01A9ED3D
:10072000B1E0EEEAF1E080E0D81385C01092AD01AF
:100730008091AD01CC0FC82BC093AD018091AC016D
:10074000813009F07CC01092AC010E9418026B014C
:100750007C018091AD018093BB008091D401909188
:10076000D501A091D601B091D701892B8A2B8B2B73
:1007700099F00E9418020091D4011091D5012091A6
:10078000D6013091D7016C197D098E099F09061792
:10079000170728073907E0F18091BC0083FDD9CF06
:1007A00085EC8093BC000E9418026B017C01809153
:1007B000D201823009F445C08091D0018F3F61F1B0
:1007C0008091D001803241F18091D00125C080918B
:1007D000D4019091D501A091D601B091D701892B78
:1007E0008A2B8B2B09F48ACF0E9418020091D40126
:1007F0001091D5012091D6013091D7016C197D0956
:100800008E099F09061717072807390708F076CFC2
:100810008091D3010E94B502109208021092070243
:100820001092D801DF91CF911F910F91FF90EF901F
:10083000DF90CF9008959D9191938F5F75CF85EE56
:10084000B0CF8091D4019091D501A091D601B09103
:10085000D701892B8A2B8B2B09F4A9CF0E94180270
:100860000091D4011091D5012091D6013091D7018A
:100870006C197D098E099F09061717072807390784
:1008800008F095CFC5CF90E080E008950F931F93B7
:10089000CF938C01C62F0E945C036C2F6460C8014B
:1008A0000E945C036C2F6B7FC8010E945C0383EC89
:1008B00090E00197F1F7CF911F910F9108950F9359
:1008C0001F93CF93DF938C01D62FC42F607F642BAF
:1008D0000E94460480E1D89FB00111246C2BC8010E
:1008E000DF91CF911F910F910C94460440E061E09D
:1008F00086EB92E00E945F048BE39FE10197F1F7A2
:100900000895CF93DF93CDB7DEB728970FB6F8944D
:10091000DEBF0FBECDBF98E0E0E0F1E0DE01119652
:1009200001900D929A95E1F79091BE022FEF9111EF
:1009300021E030E0220F331F41E050E04C0F5D1FFB
:10094000240F351FF9016081680F606840E086EB75
:1009500092E028960FB6F894DEBF0FBECDBFDF91B0
:10096000CF910C945F0441E00E945F0481E090E02D
:100970000895FB0101900020E9F73197AF01461B74
:10098000570BDC01ED91FC910280F381E02D09947D
:100990008F929F92AF92BF92EF92FF920F931F930D
:1009A000CF93DF93CDB7DEB7A1970FB6F894DEBF34
:1009B0000FBECDBF7C01FA01CB0119A2223008F491
:1009C0002AE08E010F5D1F4F822E912CB12CA12C9D
:1009D000BF01A50194010E94110BF901CA016A30FF
:1009E0000CF5605DD8016E938D01232B242B252BF4
:1009F00079F790E080E0109721F0BD01C7010E94D7
:100A0000B904A1960FB6F894DEBF0FBECDBFDF913B
:100A1000CF911F910F91FF90EF90BF90AF909F905B
:100A20008F900895695CDECF85ED8093BC00809146
:100A3000D4019091D501A091D601B091D70107962C
:100A4000A11DB11D23E0B695A795979587952A9589
:100A5000D1F72091BC0024FD03C01092D20108956B
:100A60004091D4015091D5016091D6017091D70188
:100A7000452B462B472B69F30097A105B10541F0A3
:100A800025E32A95F1F700000197A109B109E1CF0B
:100A90008091D3010C94B5021F920F920FB60F9262
:100AA00011242F933F934F935F936F937F938F9373
:100AB0009F93AF93BF93EF93FF938DE092E00E94DB
:100AC0000C01FF91EF91BF91AF919F918F917F9119
:100AD0006F915F914F913F912F910F900FBE0F90AB
:100AE0001F9018951F920F920FB60F9211242F93FB
:100AF0008F939F93EF93FF93E0911D02F0911E025D
:100B00008081E0912302F091240282FD1BC090813C
:100B1000809126028F5F8F7320912702821741F008
:100B2000E0912602F0E0E35FFD4F958F809326026F
:100B3000FF91EF919F918F912F910F900FBE0F908A
:100B40001F9018958081F4CF1F920F920FB60F92CD
:100B500011242F933F938F939F93AF93BF938091D3
:100B6000FB019091FC01A091FD01B091FE0130913B
:100B7000FA0123E0230F2D3758F50196A11DB11D71
:100B80002093FA018093FB019093FC01A093FD0157
:100B9000B093FE018091FF0190910002A0910102AB
:100BA000B09102020196A11DB11D8093FF019093A7
:100BB0000002A0930102B0930202BF91AF919F91F6
:100BC0008F913F912F910F900FBE0F901F9018950E
:100BD00026E8230F0296A11DB11DD2CF1F920F92BE
:100BE0000FB60F9211242F933F934F935F936F9300
:100BF0007F938F939F93AF93BF93EF93FF938091D6
:100C0000B900887F803609F44AC0F0F5883209F4CB
:100C1000A7C018F5803109F49BC0B8F4882309F403
:100C2000F9C0883009F494C0FF91EF91BF91AF9162
:100C30009F918F917F916F915F914F913F912F91F4
:100C40000F900FBE0F901F901895883109F488C03F
:100C5000803251F78093D00114C0803409F49DC0D4
:100C600040F48033B9F38833F9F68093D00185ECF2
:100C7000B0C0803509F485C0883509F496C0883441
:100C800099F60E941405D0CF883909F48CC038F544
:100C9000883729F050F4883611F0803729F683E040
:100CA0008093D2011092AB0157C0883809F47BC001
:100CB000803919F0803809F0B7CF8091AB018032CC
:100CC00008F071C0E091AB0181E08E0F8093AB0121
:100CD0008091BB00F0E0E557FE4F80833DC0803B34
:100CE00039F0E0F4803A09F479C0883A09F09CCFF1
:100CF00084E08093D20110928A0110928901E091E0
:100D00000502F091060209958091890181110FC0B9
:100D100081E0809389011092690109C0803C09F447
:100D2000A6CF883C09F4A3CF883B09F07DCFE091A2
:100D30008A0181E08E0F80938A01F0E0E759FE4F2F
:100D400080818093BB0090918A018091890129C0A4
:100D50008091AD018093BB0085EC8093BC0064CF93
:100D60009091CF018091CE01981758F5E091CF0175
:100D700081E08E0F8093CF01F0E0E255FE4F80813D
:100D8000E9CFE091CF0181E08E0F8093CF01809178
:100D9000BB00F0E0E255FE4F80839091CF0180913F
:100DA000CE019817C8F285E8D8CFE091CF0181E055
:100DB0008E0F8093CF018091BB00F0E0E255FE4F93
:100DC00080838091D10181115CCF81E08093AC015F
:100DD00084EA8093BC001092D20126CF85EC8093E8
:100DE000BC001092D2018091AB01803230F4E091CE
:100DF000AB01F0E0E557FE4F10826091AB0170E06F
:100E0000E0910302F09104028BE891E009951092C1
:100E1000AB010ACF1092D00134CFCF92DF92EF9284
:100E2000FF920F931F93E82FF92F05C0015011096E
:100E30002109310961F1908196239417B9F305C016
:100E4000015011092109310911F190819623941360
:100E5000F7CFC12CD12CE12CF12C0AC08FEFC81A8E
:100E6000D80AE80AF80A0C151D052E053F0579F089
:100E700080818623841791F36C2D7D2D8E2D9F2DDF
:100E80001F910F91FF90EF90DF90CF90089560E059
:100E900070E080E090E01F910F91FF90EF90DF9065
:100EA000CF900895EDE0F2E01382128288EE93E095
:100EB000A0E0B0E084839583A683B7832CE031E083
:100EC0003183208325EC30E03587248724EC30E023
:100ED0003787268720EC30E0318B208B21EC30E007
:100EE000338B228B22EC30E0358B248B26EC30E0E8
:100EF000378B268B118E128E138E148EEAEAF2E057
:100F00001382128284839583A683B7838EE191E056
:100F100091838083E6EBF2E01382128280E391E01A
:100F20009183808387E2848380E1818782E0828766
:100F300013860895789484B5826084BD84B58160F9
:100F400084BD85B5826085BD85B5816085BD809194
:100F50006E00816080936E0010928100809181000C
:100F60008260809381008091810081608093810004
:100F7000809180008160809380008091B1008460C6
:100F80008093B1008091B00081608093B000809127
:100F90007A00846080937A0080917A0082608093E6
:100FA0007A0080917A00816080937A0080917A0043
:100FB000806880937A001092C10061E08DE00E9409
:100FC000E70160E08CE00E94E70161E08BE00E94B5
:100FD000E70161E082E00E94E70161E083E00E94B6
:100FE000E70161E084E00E94E70161E085E00E94A2
:100FF000E70161E086E00E94E70161E087E00E948E
:10100000E70161E088E00E94E701E0911D02F091B4
:101010001E0282E08083E0911902F0911A02108290
:10102000E0911B02F0911C028FEC8083109225024C
:10103000E0912102F091220286E08083E0911F027C
:10104000F0912002808180618083E0911F02F09105
:101050002002808188608083E0911F02F09120024D
:10106000808180688083E0911F02F091200280815E
:101070008F7D808310920A0210920902109208025A
:10108000109207020E9497028CE890E0909306026B
:10109000809305028DE890E0909304028093030210
:1010A0001092BB028091C002823018F098E09093B9
:1010B000BB028093BE0262E370E080E090E00E9499
:1010C0003D026091C10286EB92E00E945C0368EEF3
:1010D00073E080E090E00E943D0260E386EB92E0E6
:1010E0000E944604CBE4D6E4CE010197F1F760E319
:1010F00086EB92E00E9446042197F1F760E386EBCD
:1011000092E00E94460483E592E00197F1F760E2E5
:1011100086EB92E00E9446046091BB02606240E070
:1011200086EB92E00E945F0484E08093BC0240E082
:101130006CE086EB92E00E945F040E94760482E0FD
:101140008093BD0240E066E086EB92E00E945F047F
:1011500040E062E086EB92E00E945F048BE39FE157
:101160000197F1F788E08093C10260E086EB92E09E
:101170000E945C030E94760480E00E94810460ED7E
:1011800077E080E090E00E943D020E947604CBE987
:10119000DFE02AEBE22E20E0F22E36EAC32E30E02A
:1011A000D32E40E0A42E40E0B42E61E08DE00E94FA
:1011B0009B01CE010197F1F760E08DE00E949B0159
:1011C000F7016491F6018491E82FF0E0EE0FFF1F24
:1011D000E057FF4F8591949100E412E42FE030E056
:1011E000462F0E940D07611571058105910529F0B3
:1011F0006F5F7F4F8F4F9F4F9F709B0177FF02C0A4
:101200002F5F3F4FB90175956795072E000C880B2E
:10121000990B0E94850A20E030E044EE51E40E94E0
:10122000DB090E944D0A70930C0260930B022B01A4
:10123000770F660877082AE0B301A20177FE0DC098
:101240006DE28DE092E00E942E0144275527BA01FD
:1012500044195509660977092AE08DE092E00E9459
:10126000C80468E371E08DE092E00E94B9046090E8
:101270000B0270900C02F6E06F167104F4F461E05A
:1012800082E00E949B0161E08BE00E949B0161E093
:1012900083E00E949B0161E084E00E949B0161E089
:1012A00085E00E949B0161E086E00E949B0161E075
:1012B00087E00E949B0161E035C060E082E00E940F
:1012C0009B0160E08BE00E949B0188E0681671043E
:1012D000F4F260E083E00E949B01EBE06E16710483
:1012E000D4F260E084E00E949B01F0E16F1671048B
:1012F000B4F260E085E00E949B0182E1681671040F
:1013000094F260E086E00E949B01E5E16E167104B4
:1013100074F260E087E00E949B0160E0FAE16F16E2
:1013200071044CF288E00E949B0180E00E948104DD
:101330006BE371E086EB92E00E94B9048AE00E94C0
:10134000810440900B0250900C02052C000C6608A2
:1013500077082AE0B301A20177FE0EC041E06DE2FA
:1013600086EB92E00E945F0444275527BA01441996
:101370005509660977092AE086EB92E00E94C804C5
:101380008EE00E94810465E471E086EB92E00E94A9
:10139000B90464E670E080E090E00E943D02A11490
:1013A000B10409F402CF0E94F800882309F4FDCEAD
:1013B0000E940000FACE0E94EF090C94D70A0E9406
:1013C000D00A58F00E94C90A40F029F45F3F29F082
:1013D0000C94C00A51110C940B0B0C94C60A0E9479
:1013E000E80A68F39923B1F3552391F3951B550B44
:1013F000BB27AA2762177307840738F09F5F5F4FE8
:10140000220F331F441FAA1FA9F335D00E2E3AF026
:10141000E0E832D091505040E695001CCAF72BD03E
:10142000FE2F29D0660F771F881FBB1F261737078F
:101430004807AB07B0E809F0BB0B802DBF01FF27C1
:1014400093585F4F3AF09E3F510578F00C94C00AD4
:101450000C940B0B5F3FE4F3983ED4F3869577959D
:101460006795B795F7959F5FC9F7880F911D96957A
:10147000879597F90895E1E0660F771F881FBB1FD6
:10148000621773078407BA0720F0621B730B840B83
:10149000BA0BEE1F88F7E09508950E94540A6894ED
:1014A000B1110C940B0B08950E94F00A88F09F571D
:1014B00098F0B92F9927B751B0F0E1F0660F771F78
:1014C000881F991F1AF0BA95C9F714C0B13091F06E
:1014D0000E940A0BB1E008950C940A0B672F782F35
:1014E0008827B85F39F0B93FCCF386957795679533
:1014F000B395D9F73EF490958095709561957F4F9F
:101500008F4F9F4F0895E89409C097FB3EF4909544
:101510008095709561957F4F8F4F9F4F9923A9F0CC
:10152000F92F96E9BB279395F6958795779567955B
:10153000B795F111F8CFFAF4BB0F11F460FF1BC09F
:101540006F5F7F4F8F4F9F4F16C0882311F096E932
:1015500011C0772321F09EE8872F762F05C06623E0
:1015600071F096E8862F70E060E02AF09A95660F99
:10157000771F881FDAF7880F9695879597F9089552
:1015800097F99F6780E870E060E008959FEF80EC36
:10159000089500240A9416161706180609060895D9
:1015A00000240A9412161306140605060895092E3F
:1015B0000394000C11F4882352F0BB0F40F4BF2BAE
:1015C00011F460FF04C06F5F7F4F8F4F9F4F0895EE
:1015D00057FD9058440F551F59F05F3F71F04795E4
:1015E000880F97FB991F61F09F3F79F087950895C9
:1015F000121613061406551FF2CF4695F1DF08C0E8
:10160000161617061806991FF1CF86957105610504
:1016100008940895E894BB2766277727CB0197F9AC
:101620000895A1E21A2EAA1BBB1BFD010DC0AA1F23
:10163000BB1FEE1FFF1FA217B307E407F50720F03B
:10164000A21BB30BE40BF50B661F771F881F991FB6
:101650001A9469F760957095809590959B01AC01FF
:10166000BD01CF010895EE0FFF1F0590F491E02D0D
:101670000994F894FFCF00004000140054000000CB
:1016800000002E018E00BB007B01EC00CA00DE00D2
:10169000000000002D0300034304D602F902E60215
:1016A000D70200000000B3048E0043046F020D0A4D
:0E16B0000044697374616E63653A00636D00F7
:107E0000112484B714BE81FFF0D085E080938100F7
:107E100082E08093C00088E18093C10086E0809377
:107E2000C20080E18093C4008EE0C9D0259A86E02C
:107E300020E33CEF91E0309385002093840096BBD3
:107E4000B09BFECF1D9AA8958150A9F7CC24DD24C4
:107E500088248394B5E0AB2EA1E19A2EF3E0BF2EE7
:107E6000A2D0813461F49FD0082FAFD0023811F036
:107E7000013811F484E001C083E08DD089C08234E0
:107E800011F484E103C0853419F485E0A6D080C0E4
:107E9000853579F488D0E82EFF2485D0082F10E0AE
:107EA000102F00270E291F29000F111F8ED06801E7
:107EB0006FC0863521F484E090D080E0DECF843638
:107EC00009F040C070D06FD0082F6DD080E0C81688
:107ED00080E7D80618F4F601B7BEE895C0E0D1E017
:107EE00062D089930C17E1F7F0E0CF16F0E7DF06D8
:107EF00018F0F601B7BEE89568D007B600FCFDCFD4
:107F0000A601A0E0B1E02C9130E011968C91119780
:107F100090E0982F8827822B932B1296FA010C0160
:107F200087BEE89511244E5F5F4FF1E0A038BF0790
:107F300051F7F601A7BEE89507B600FCFDCF97BE46
:107F4000E89526C08437B1F42ED02DD0F82E2BD052
:107F50003CD0F601EF2C8F010F5F1F4F84911BD097
:107F6000EA94F801C1F70894C11CD11CFA94CF0C13
:107F7000D11C0EC0853739F428D08EE10CD085E9AC
:107F80000AD08FE07ACF813511F488E018D01DD067
:107F900080E101D065CF982F8091C00085FFFCCF94
:107FA0009093C60008958091C00087FFFCCF809118
:107FB000C00084FD01C0A8958091C6000895E0E648
:107FC000F0E098E1908380830895EDDF803219F02E
:107FD00088E0F5DFFFCF84E1DECF1F93182FE3DFCA
:107FE0001150E9F7F2DF1F91089580E0E8DFEE27F6
:047FF000FF270994CA
:027FFE00040479
:00000001FF
